S00C000066756F7A2E7372656354
S113000012C03AC029C028C073C093C025C024C000
S113001023C022C021C020C081C01EC01DC01CC07E
S11300201BC01AC019C011241FBECFEDCDBF10E0F4
S1130030A0E6B0E0E6E7F1E002C005900D92A0363C
S1130040B107D9F720E0A0E6B0E001C01D92A436C4
S1130050B207E1F702D08DC0D3CFF89488B7806699
S113006088BF89B7806E89BF85B7836085BF80E408
S11300708BBFB89A7894FFCF1F920F920FB60F924E
S113008011245F936F937F938F939F93AF93BF9349
S11300908EB583608EBD8CB59DB5909363008093BF
S11300A062001DBC1CBC6CE070E04FD0653671056D
S11300B038F064567109709361006093600006C063
S11300C081E090E0909361008093600080916000F3
S11300D0909161009BBD8ABDBF91AF919F918F911B
S11300E07F916F915F910F900FBE0F901F901895A5
S11300F01F920F920FB60F9211248F939F93C09A61
S11301008091600090916100039699BD88BD9F9194
S11301108F910F900FBE0F901F9018951F920F9202
S11301200FB60F921124C0980F900FBE0F901F901E
S113013018951F920F920FB60F921124C0981EBCEF
S11301400F900FBE0F901F901895AA1BBB1B51E177
S113015007C0AA1FBB1FA617B70710F0A61BB70B33
S1130160881F991F5A95A9F780959095BC01CD01D8
S10901700895F894FFCF8E
S9030000FC
