S00C000066756F7A2E7372656354
S113000012C03CC02BC02AC029C028C09AC0BDC0A1
S1130010C7C024C023C022C021C020C01FC01EC02E
S11300201DC01CC01BC011241FBECFE5D4E0DEBF21
S1130030CDBF10E0A0E6B0E0E2E1F2E002C005903E
S11300400D92A036B107D9F720E0A0E6B0E001C0D8
S11300501D92A836B207E1F7AFD0D9C0D1CFF8943A
S113006088B7886188BF89B78C6189BF85B7836089
S113007085BF80E48BBFBD9A789408951F920F9238
S11300800FB60F9211242F933F935F936F937F9337
S11300908F939F93AF93BF93EF93FF93F8948EB591
S11300A083608EBD8091660090916700909361009B
S11300B080936000ECB5FDB5F0936700E0936600B3
S11300C01DBC1CBCCF016CE070E08DD065367105A1
S11300D038F064567109709365006093640006C03B
S11300E081E090E090936500809364002091640027
S11300F030916500283781E0380740F0C9018757FF
S11301009140909363008093620008C0E20FF31F54
S1130110E757F140F0936300E09362003BBD2ABDD2
S11301207894FF91EF91BF91AF919F918F917F91BF
S11301306F915F913F912F910F900FBE0F901F9081
S113014018951F920F920FB60F9211242F938F932D
S11301509F93C5988091660090916700883791407D
S113016030F482E090E09093630080936200809189
S113017062009091630099BD88BD9F918F912F91EA
S11301800F900FBE0F901F9018951F920F920FB6ED
S11301900F921124C59A0F900FBE0F901F901895BF
S11301A01F920F920FB60F921124C5981EBC0F9088
S11301B00FBE0F901F90189552DFB89AC09A2FEF78
S11301C089E698E1215080409040E1F700C00000AA
S11301D0C0982FEF89E698E1215080409040E1F7E4
S11301E000C00000EBCFAA1BBB1B51E107C0AA1F34
S11301F0BB1FA617B70710F0A61BB70B881F991FC4
S11302005A95A9F780959095BC01CD010895F8946D
S1050210FFCF1A
S9030000FC
